{
  "contractName": "Faucet",
  "abi": [
    {
      "inputs": [],
      "name": "numOfFunders",
      "outputs": [
        {
          "internalType": "uint256",
          "name": "",
          "type": "uint256"
        }
      ],
      "stateMutability": "view",
      "type": "function",
      "constant": true
    },
    {
      "inputs": [],
      "name": "owner",
      "outputs": [
        {
          "internalType": "address",
          "name": "",
          "type": "address"
        }
      ],
      "stateMutability": "view",
      "type": "function",
      "constant": true
    },
    {
      "inputs": [],
      "name": "testNum",
      "outputs": [
        {
          "internalType": "uint256",
          "name": "",
          "type": "uint256"
        }
      ],
      "stateMutability": "view",
      "type": "function",
      "constant": true
    },
    {
      "stateMutability": "payable",
      "type": "receive",
      "payable": true
    },
    {
      "inputs": [
        {
          "internalType": "address",
          "name": "newOwner",
          "type": "address"
        }
      ],
      "name": "transferOwnership",
      "outputs": [],
      "stateMutability": "nonpayable",
      "type": "function"
    },
    {
      "inputs": [],
      "name": "emitLog",
      "outputs": [
        {
          "internalType": "bytes32",
          "name": "",
          "type": "bytes32"
        }
      ],
      "stateMutability": "pure",
      "type": "function",
      "constant": true
    },
    {
      "inputs": [],
      "name": "addFunds",
      "outputs": [],
      "stateMutability": "payable",
      "type": "function",
      "payable": true
    },
    {
      "inputs": [
        {
          "internalType": "uint256",
          "name": "withdrawAmount",
          "type": "uint256"
        }
      ],
      "name": "withdraw",
      "outputs": [],
      "stateMutability": "nonpayable",
      "type": "function"
    },
    {
      "inputs": [],
      "name": "getAllFunders",
      "outputs": [
        {
          "internalType": "address[]",
          "name": "",
          "type": "address[]"
        }
      ],
      "stateMutability": "view",
      "type": "function",
      "constant": true
    },
    {
      "inputs": [
        {
          "internalType": "uint8",
          "name": "index",
          "type": "uint8"
        }
      ],
      "name": "getFunderAtIndex",
      "outputs": [
        {
          "internalType": "address",
          "name": "",
          "type": "address"
        }
      ],
      "stateMutability": "view",
      "type": "function",
      "constant": true
    }
  ],
  "bytecode": "0x608060405234801561001057600080fd5b50336000806101000a81548173ffffffffffffffffffffffffffffffffffffffff021916908373ffffffffffffffffffffffffffffffffffffffff1602179055506103e8600181905550610aff806100696000396000f3fe60806040526004361061008a5760003560e01c8063a26759cb11610059578063a26759cb14610152578063ae28f1ed1461015c578063af7f2c9b14610187578063f2fde38b146101b2578063f42c13bf146101db57610091565b80630a93cf33146100965780632e1a7d4d146100d35780636fbbb55d146100fc5780638da5cb5b1461012757610091565b3661009157005b600080fd5b3480156100a257600080fd5b506100bd60048036038101906100b891906106fd565b610206565b6040516100ca919061081e565b60405180910390f35b3480156100df57600080fd5b506100fa60048036038101906100f591906106d4565b610246565b005b34801561010857600080fd5b506101116102dd565b60405161011e9190610839565b60405180910390f35b34801561013357600080fd5b5061013c610423565b604051610149919061081e565b60405180910390f35b61015a610447565b005b34801561016857600080fd5b50610171610567565b60405161017e91906108b6565b60405180910390f35b34801561019357600080fd5b5061019c61056d565b6040516101a991906108b6565b60405180910390f35b3480156101be57600080fd5b506101d960048036038101906101d491906106ab565b610573565b005b3480156101e757600080fd5b506101f0610644565b6040516101fd919061085b565b60405180910390f35b6000600460008360ff16815260200190815260200160002060009054906101000a900473ffffffffffffffffffffffffffffffffffffffff169050919050565b8067016345785d8a0000811115610292576040517f08c379a000000000000000000000000000000000000000000000000000000000815260040161028990610896565b60405180910390fd5b3373ffffffffffffffffffffffffffffffffffffffff166108fc839081150290604051600060405180830381858888f193505050501580156102d8573d6000803e3d6000fd5b505050565b6060600060025467ffffffffffffffff811115610323577f4e487b7100000000000000000000000000000000000000000000000000000000600052604160045260246000fd5b6040519080825280602002602001820160405280156103515781602001602082028036833780820191505090505b50905060005b60025481101561041b576004600082815260200190815260200160002060009054906101000a900473ffffffffffffffffffffffffffffffffffffffff168282815181106103ce577f4e487b7100000000000000000000000000000000000000000000000000000000600052603260045260246000fd5b602002602001019073ffffffffffffffffffffffffffffffffffffffff16908173ffffffffffffffffffffffffffffffffffffffff168152505080806104139061096e565b915050610357565b508091505090565b60008054906101000a900473ffffffffffffffffffffffffffffffffffffffff1681565b6000339050600360008273ffffffffffffffffffffffffffffffffffffffff1673ffffffffffffffffffffffffffffffffffffffff16815260200190815260200160002060009054906101000a900460ff16610564576000600260008154809291906104b29061096e565b9190505590506001600360008473ffffffffffffffffffffffffffffffffffffffff1673ffffffffffffffffffffffffffffffffffffffff16815260200190815260200160002060006101000a81548160ff021916908315150217905550816004600083815260200190815260200160002060006101000a81548173ffffffffffffffffffffffffffffffffffffffff021916908373ffffffffffffffffffffffffffffffffffffffff160217905550505b50565b60015481565b60025481565b60008054906101000a900473ffffffffffffffffffffffffffffffffffffffff1673ffffffffffffffffffffffffffffffffffffffff163373ffffffffffffffffffffffffffffffffffffffff1614610601576040517f08c379a00000000000000000000000000000000000000000000000000000000081526004016105f890610876565b60405180910390fd5b806000806101000a81548173ffffffffffffffffffffffffffffffffffffffff021916908373ffffffffffffffffffffffffffffffffffffffff16021790555050565b60007f48656c6c6f20576f726c64000000000000000000000000000000000000000000905090565b60008135905061067b81610a84565b92915050565b60008135905061069081610a9b565b92915050565b6000813590506106a581610ab2565b92915050565b6000602082840312156106bd57600080fd5b60006106cb8482850161066c565b91505092915050565b6000602082840312156106e657600080fd5b60006106f484828501610681565b91505092915050565b60006020828403121561070f57600080fd5b600061071d84828501610696565b91505092915050565b6000610732838361073e565b60208301905092915050565b6107478161091b565b82525050565b6107568161091b565b82525050565b6000610767826108e1565b61077181856108f9565b935061077c836108d1565b8060005b838110156107ad5781516107948882610726565b975061079f836108ec565b925050600181019050610780565b5085935050505092915050565b6107c38161092d565b82525050565b60006107d660218361090a565b91506107e1826109e6565b604082019050919050565b60006107f960238361090a565b915061080482610a35565b604082019050919050565b61081881610957565b82525050565b6000602082019050610833600083018461074d565b92915050565b60006020820190508181036000830152610853818461075c565b905092915050565b600060208201905061087060008301846107ba565b92915050565b6000602082019050818103600083015261088f816107c9565b9050919050565b600060208201905081810360008301526108af816107ec565b9050919050565b60006020820190506108cb600083018461080f565b92915050565b6000819050602082019050919050565b600081519050919050565b6000602082019050919050565b600082825260208201905092915050565b600082825260208201905092915050565b600061092682610937565b9050919050565b6000819050919050565b600073ffffffffffffffffffffffffffffffffffffffff82169050919050565b6000819050919050565b600060ff82169050919050565b600061097982610957565b91507fffffffffffffffffffffffffffffffffffffffffffffffffffffffffffffffff8214156109ac576109ab6109b7565b5b600182019050919050565b7f4e487b7100000000000000000000000000000000000000000000000000000000600052601160045260246000fd5b7f4f6e6c79206f776e65722063616e2063616c6c20746869732066756e6374696f60008201527f6e00000000000000000000000000000000000000000000000000000000000000602082015250565b7f43616e6e6f74207769746864726177206d6f7265207468616e20302e3120457460008201527f6865720000000000000000000000000000000000000000000000000000000000602082015250565b610a8d8161091b565b8114610a9857600080fd5b50565b610aa481610957565b8114610aaf57600080fd5b50565b610abb81610961565b8114610ac657600080fd5b5056fea26469706673582212208dc6d92ef043bfa189a8bd247f29611c6660a865d52e8c592a8804813a8d2ebe64736f6c63430008040033",
  "immutableReferences": {},
  "source": "// SPDX-License-Identifier: MIT\r\npragma solidity >=0.4.22 <0.9.0;\r\n\r\nimport \"./Owned.sol\";\r\nimport \"./Logger.sol\";\r\nimport \"./IFaucet.sol\";\r\n\r\ncontract Faucet is Owned, Logger, IFaucet {\r\n\r\n  uint public numOfFunders;\r\n\r\n  mapping(address => bool) private funders;\r\n  mapping(uint => address) private lutFunders;\r\n\r\n\r\n  modifier limitWithdraw(uint withdrawAmount){\r\n    require(\r\n      withdrawAmount <= 100000000000000000, \r\n    \"Cannot withdraw more than 0.1 Ether\"\r\n    );\r\n    _;\r\n  }\r\n  \r\n  function transferOwnership(address newOwner) external onlyOwner {\r\n    owner = newOwner;\r\n  }\r\n  \r\n\r\n  //private --> can be accesable only within sc\r\n  //internal --> accessiable within sc analso derived sc \r\n\r\n  receive() external payable {}\r\n\r\n  function emitLog() public override pure returns(bytes32){\r\n    return \"Hello World\";\r\n  }\r\n\r\n  function addFunds() override external payable {\r\n    address funder = msg.sender;\r\n    if(!funders[funder]){\r\n      uint index = numOfFunders++;\r\n      funders[funder] = true;\r\n      lutFunders[index] = funder;\r\n    }\r\n  }\r\n  \r\n  function withdraw(uint withdrawAmount) override external limitWithdraw(withdrawAmount){\r\n    payable(msg.sender).transfer(withdrawAmount);\r\n  }\r\n\r\n  function getAllFunders() external view returns(address[] memory){\r\n    address[] memory _funders = new address[](numOfFunders); \r\n\r\n    for (uint i = 0; i < numOfFunders; i++) {\r\n      _funders[i] = lutFunders[i];\r\n    }\r\n    return _funders;\r\n  }\r\n\r\n  function getFunderAtIndex(uint8 index) external view returns(address) {\r\n    return lutFunders[index];\r\n  }\r\n\r\n}\r\n\r\n//const instance = await Faucet.deployed();\r\n//instance.addFunds({from: accounts[0], value: \"2000000000000000000\"})\r\n//instance.addFunds({from: accounts[1], value: \"2000000000000000000\"})\r\n\r\n//instance.withdraw(\"500000000000000000\", {from: accounts[1]})\r\n\r\n//instance.getFunderAtIndex(0)\r\n//instance.getAllFunders()",
  "sourcePath": "E:\\dishonored 2\\Blockchain\\Project\\blockchain\\faucet\\contracts\\FaucetContract.sol",
  "compiler": {
    "name": "solc",
    "version": "0.8.4+commit.c7e474f2.Emscripten.clang"
  },
  "schemaVersion": "3.4.7",
  "updatedAt": "2022-05-06T14:25:47.636Z",
  "networkType": "ethereum",
  "devdoc": {
    "kind": "dev",
    "methods": {},
    "version": 1
  },
  "userdoc": {
    "kind": "user",
    "methods": {},
    "version": 1
  }
}